{"abi":[{"type":"constructor","inputs":[],"stateMutability":"nonpayable"},{"type":"receive","stateMutability":"payable"},{"type":"function","name":"airdrop","inputs":[{"name":"recipients","type":"address[]","internalType":"address[]"},{"name":"amount","type":"uint256","internalType":"uint256"}],"outputs":[],"stateMutability":"payable"},{"type":"function","name":"owner","inputs":[],"outputs":[{"name":"","type":"address","internalType":"address"}],"stateMutability":"view"},{"type":"event","name":"AirdropSent","inputs":[{"name":"recipient","type":"address","indexed":true,"internalType":"address"},{"name":"amount","type":"uint256","indexed":false,"internalType":"uint256"}],"anonymous":false}],"bytecode":{"object":"0x6080604052348015600f57600080fd5b50600080546001600160a01b03191633179055610442806100316000396000f3fe60806040526004361061002d5760003560e01c80638da5cb5b14610039578063c204642c1461007557600080fd5b3661003457005b600080fd5b34801561004557600080fd5b50600054610059906001600160a01b031681565b6040516001600160a01b03909116815260200160405180910390f35b6100886100833660046102f3565b61008a565b005b6000546001600160a01b031633146100f85760405162461bcd60e51b815260206004820152602660248201527f4f6e6c7920746865206f776e65722063616e2063616c6c20746869732066756e60448201526531ba34b7b71760d11b60648201526084015b60405180910390fd5b600081835161010791906103cb565b9050803410156101595760405162461bcd60e51b815260206004820152601c60248201527f496e73756666696369656e742045746865722070726f76696465642e0000000060448201526064016100ef565b60005b8351811015610278576000848281518110610179576101796103f6565b60200260200101516001600160a01b03168460405160006040518083038185875af1925050503d80600081146101cb576040519150601f19603f3d011682016040523d82523d6000602084013e6101d0565b606091505b50509050806102135760405162461bcd60e51b815260206004820152600f60248201526e151c985b9cd9995c8819985a5b1959608a1b60448201526064016100ef565b848281518110610225576102256103f6565b60200260200101516001600160a01b03167f90bcf0048b4f2fce00ba208729b9edf192f9ca8c71b84845e2d94f7dffeeddcd8560405161026791815260200190565b60405180910390a25060010161015c565b504780156102bb57600080546040516001600160a01b039091169183156108fc02918491818181858888f193505050501580156102b9573d6000803e3d6000fd5b505b50505050565b634e487b7160e01b600052604160045260246000fd5b80356001600160a01b03811681146102ee57600080fd5b919050565b6000806040838503121561030657600080fd5b823567ffffffffffffffff81111561031d57600080fd5b8301601f8101851361032e57600080fd5b803567ffffffffffffffff811115610348576103486102c1565b8060051b604051601f19603f830116810181811067ffffffffffffffff82111715610375576103756102c1565b60405291825260208184018101929081018884111561039357600080fd5b6020850194505b838510156103b9576103ab856102d7565b81526020948501940161039a565b50976020969096013596505050505050565b80820281158282048414176103f057634e487b7160e01b600052601160045260246000fd5b92915050565b634e487b7160e01b600052603260045260246000fdfea2646970667358221220911fccb26170dceb6d8eca7202bbef6d87d8c2d693337c282dcdb22724c3e0e164736f6c634300081b0033","linkReferences":{}},"methodIdentifiers":{"airdrop(address[],uint256)":"c204642c","owner()":"8da5cb5b"},"id":0}